:020000040800F2
:10000000480D002439030008BF3700088531000877
:10001000BD370008D9090008774400080000000037
:100020000000000000000000000000005F3B00082E
:10003000DB09000800000000C1370008613B000830
:100040005303000853030008530300085303000838
:100050005303000853030008530300085303000828
:100060005303000853030008530300085303000818
:100070005303000853030008530300085303000808
:1000800053030008530300085303000853030008F8
:1000900053030008530300085303000853030008E8
:1000A000530300082D3D00085303000853030008C4
:1000B000393D0008553D000853030008530300086C
:1000C00053030008530300085303000853030008B8
:1000D00053030008530300085303000853030008A8
:1000E00053030008530300080000000053030008F6
:1000F0005303000853030008530300085303000888
:100100005303000853030008530300085303000877
:100110005303000853030008530300085303000867
:100120005303000853030008530300085303000857
:100130005303000853030008530300085303000847
:1001400000000000000000000000000000000000AF
:100150005303000853030008530300085303000827
:100160005303000853030008530300085303000817
:100170005303000853030008530300080000000065
:1001800053030008530300085303000853030008F7
:1001900053030008530300085303000853030008E7
:1001A00053030008530300085303000853030008D7
:1001B00053030008530300085303000853030008C7
:1001C00053030008530300085303000853030008B7
:1001D00053030008530300085303000853030008A7
:1001E0005303000853030008530300085303000897
:1001F0005303000853030008530300085303000887
:100200005303000853030008530300085303000876
:100210005303000853030008530300085303000866
:1002200053030008530300085303000800000000B4
:1002300053030008530300080000000053030008A4
:100240005303000853030008530300085303000836
:100250005303000853030008530300085303000826
:100260005303000853030008530300085303000816
:100270005303000853030008530300080000000064
:100280005303000853030008530300080000000054
:10029000000000005303000800F002F800F03CF8F2
:1002A0000AA090E8000C82448344AAF10107DA45D1
:1002B00001D100F031F8AFF2090EBAE80F0013F0E7
:1002C000010F18BFFB1A43F0010318477C420000DE
:1002D0009C420000103A24BF78C878C1FAD852076F
:1002E00024BF30C830C144BF04680C6070470000B0
:1002F0000023002400250026103A28BF78C1FBD82F
:10030000520728BF30C148BF0B6070471FB504F0CB
:10031000F9F81FBD10B510BD00F0CFF81146FFF77A
:10032000F5FF04F0BBF800F0EDF803B4FFF7F2FFBF
:1003300003BC00F0F5F80000094880470948004771
:10034000FEE7FEE7FEE7FEE7FEE7FEE7FEE7FEE785
:10035000FEE7FEE704480549054A064B70470000E2
:10036000513C00089902000848070024480D002469
:10037000480900244809002453EA020C00F069806F
:100380002DE9F04B4FF00006002B1FBFB3FA83F5A9
:1003900003FA05F424FA05F65E4012BF1643B2FADA
:1003A00082F502FA05F4C5F120051EBF22FA05FC0C
:1003B00044EA0C04203556EA044C4FEA144418BFB2
:1003C000641C4FF000084FF00009904271EB030CE1
:1003D00039D3002919BFB1FA81F701FA07F6B0FA4B
:1003E00080F700FA07F6C7F120071EBF20FA07FCC6
:1003F00046EA0C062037B6FBF4FCA7EB0507103FD6
:1004000007F01F0BCBF120060CFA0BFB2CFA06F6BB
:1004100044BFB3460026202FA4BF5E464FF0000B1A
:100420005BEA060C08BF4FF0010B19EB0B09ABFBA5
:10043000027C48EB0608C01B06FB02CC0BFB03CC7E
:1004400071EB0C01C1E70B46024641464846BDE848
:10045000F08B13B54FF000004FF00001AFF30080B8
:10046000BDE81C4070474FF0000200B513469446AB
:100470009646203922BFA0E80C50A0E80C50B1F1FC
:100480002001BFF4F7AF090728BFA0E80C5048BF10
:100490000CC05DF804EB890028BF40F8042B08BFAE
:1004A000704748BF20F8022B11F0804F18BF00F8AA
:1004B000012B7047704770477047754600F02CF865
:1004C000AE4605006946534620F00700854618B041
:1004D00020B5FFF73FFFBDE820404FF000064FF08A
:1004E00000074FF000084FF0000B21F00701AC4669
:1004F000ACE8C009ACE8C009ACE8C009ACE8C00988
:100500008D46704710B50446AFF300802046BDE825
:100510001040FFF70ABF000000487047E8060024BB
:1005200001491820ABBEFEE726000200704700001C
:100530002DE9F843002588468146009500F060F9D2
:10054000384C012202210320042665700523A27085
:10055000A271E17121736073267606266176258289
:10056000E37607232277082784F8246084F825009F
:1005700084F82C3084F82D0084F8317084F832200F
:100580000095009B04EB8302093382F8363082F831
:100590003710009A521C0092112AF2DB0095009B42
:1005A00004EB8302193382F8723082F87310009AD8
:1005B000521C0092082AF2DB0095009904EBC1025C
:1005C000213182F8941082F895000099491C00911D
:1005D0000829F2DB0095009904EBC102293182F869
:1005E000D41082F8D5000099491C00910829F2DB4B
:1005F0000095009904EBC102313182F8141182F8A0
:1006000015010099491C00910829F2DB642000F0D3
:10061000E7F9227F4346E17E484600F005F8A076E0
:10062000BDE8F883180000242DE9F05FDFF8B4A1DD
:100630000746006841F04005DFF8AC911C46DFF842
:10064000ACB15045904613D12CB1012C06D0022CF0
:1006500008D0032C09D00022012101E00022022150
:1006600063484DE000220421FAE700220821F7E761
:100670006049884217D12CB1012C07D0022C09D037
:10068000032C0BD000224FF480710AE000224FF4BB
:10069000007106E000224FF4806102E000224FF476
:1006A000006155482CE0484512D12CB1012C06D0F0
:1006B000022C07D0032C08D000220121F1E70022F0
:1006C0000221EEE700220421EBE700220821E8E7FF
:1006D000584517D12CB1012C06D0022C08D0032C80
:1006E0000AD0002280210AE000224FF4807106E047
:1006F00000224FF4007102E000224FF480613F4875
:1007000000F096FA2946384603F0FAF90026054625
:1007100008E006B12D023846FF2103F0F1F9054348
:10072000761CF6B24645F4D33868504513D12CB147
:10073000012C06D0022C08D0032C09D0012211462E
:1007400001E0012202212A4846E001220421FAE7C1
:1007500001220821F7E72749884213D12CB1012C47
:1007600006D0022C07D0032C08D00122110207E08A
:100770000122510204E00122910201E00122D10292
:100780001D4829E0484512D12CB1012C06D0022C7D
:1007900007D0032C08D001221146F1E701220221E3
:1007A000EEE701220421EBE701220821E8E75845A2
:1007B00014D12CB1012C06D0022C07D0032C08D068
:1007C0000122802107E00122110204E001225102EE
:1007D00001E001229102094800F02AFA2846BDE80A
:1007E000F09F000000300140003C00400034014018
:1007F0000000025800380040000C02580010025857
:100800002DE9FC5F0C4606466AA1DFF8B081DFF8EF
:10081000B09100256B4FD1E90002DFF8ACA1CDE922
:1008200000023068404514D134B1012C07D0022CAD
:1008300009D0032C59D109E00022012101E0002256
:10084000022162484FE000220421FAE70022082139
:10085000F7E7484518D134B1012C08D0022C0AD052
:10086000032C42D10BE000224FF480710AE00022F9
:100870004FF4007106E000224FF4806102E0002294
:100880004FF4006152482EE0B84213D134B1012C2C
:1008900007D0022C08D0032C27D108E00022012128
:1008A000F0E700220221EDE700220421EAE700221E
:1008B0000821E7E7504518D134B1012C07D0022CAC
:1008C00009D0032C11D10AE0002280210AE0002285
:1008D0004FF4807106E000224FF4007102E0002224
:1008E0004FF480613B4800F0A3F9EB4630461BF81B
:1008F000051003F005F96D1C082DF7DB3068404545
:1009000017D144B1012C09D0022C0FD0032C0BD1EC
:100910000122082104E00122114601E00122022106
:100920002A4800BF00F084F9BDE8FC9F01220421A1
:10093000F6E7484512D144B1012C09D0022C0AD067
:10094000032CF1D10122D10219E00122110216E09B
:100950000122510213E00122910210E0B84213D1AA
:1009600044B1012C09D0022C0BD0032CDCD1012284
:10097000082104E00122114601E00122022114486D
:10098000D0E701220421FAE75045CDD14CB1012C2A
:100990000AD0022C0BD0032CC6D1012291020D48A3
:1009A000C0E701228021FAE701221102F7E70122C4
:1009B0005102F4E7FFFFFFFFFFFFFFFF00300140A0
:1009C00000380040003C0040003401400000025864
:1009D000000C025800100258FEE7704772B6FEE79E
:1009E00070B5044600F030F90546601C02D004489A
:1009F0000078044400F028F9401BA042FAD370BDEF
:100A0000040000242DE9F84F03247D4D00234FF00E
:100A100001094FF0B04B4FF00F0AE9E009FA03F774
:100A20003A4076D00E7906F00306012E01D0022E50
:100A300018D1D0F808C04FEA430ECE6804FA0EF879
:100A40002CEA080C06FA0EF646EA0C068660D0F888
:100A500004C00E792CEA070CC6F300169E4046EA45
:100A60000C0646600E79F643B6070BD0C6684FEA0F
:100A700043088F6804FA08FC26EA0C0607FA08F710
:100A80003743C7600E7906F00306022E12D1DE0846
:100A90000F694FEA437C00EB8606B646366A4FEA9A
:100AA000DC6C0AFA0CF807FA0CF726EA080637435A
:100AB000CEF820700F7906684FEA430807F0030765
:100AC00004FA08FC07FA08F726EA0C063743076021
:100AD0004E6816F4403F1CD04A4E376847F0020774
:100AE000376036689F0706F00206009623F003067B
:100AF00006F1B046B6463F0FD6F80864DFF8088125
:100B00000AFA07FC404526EA0C0603D14FF0000C18
:100B100041E06CE0DFF8F4C0604502D14FF0010C19
:100B200039E0DFF8ECC0604502D14FF0020C32E052
:100B3000DFF8E0C0604502D14FF0030C2BE0DFF896
:100B4000D8C0604502D14FF0040C24E0DFF8CCC0DF
:100B5000604502D14FF0050C1DE0DFF8C4C06045D0
:100B600002D14FF0060C16E0DFF8B8C0604502D1A4
:100B70004FF0070C0FE0DFF8B0C0604502D14FF036
:100B8000080C08E0DFF8A4C0604502D14FF0090C62
:100B900001E04FF00A0C0CFA07FC4CEA060CCEF808
:100BA00008C44F68DBF80060FF0226EA020600D5A1
:100BB00016435F46CBF80060D1F804C0DBF8046050
:100BC0005FEA8C2C26EA020600D516437E606E682A
:100BD0004F6826EA0206BF0300D516436E602E68F2
:100BE0004F6826EA0206FF0300D516432E605B1C01
:100BF0000A6832FA03F67FF411AFBDE8F88F0000FF
:100C000080000058F44402580000025800040258C2
:100C100000080258000C0258001002580014025834
:100C200000180258001C02580020025800240258E4
:100C30000AB1816170470904FBE7000001480068C0
:100C4000000C70470010005C01488068704700008D
:100C50000400002430B590F84120202A24D190F8D7
:100C60004020012A20D0012380F84030242280F83F
:100C70004120202300240268156825F00105156035
:100C80000268156825F480551560026815680D43E3
:100C9000156001680A6842F001020A6080F841307C
:100CA00080F84040002030BD022030BD30B590F8C3
:100CB0004120202A22D190F84020012A1ED0012371
:100CC00080F84030242280F841202024002502684A
:100CD000136823F0010313600268136823F4706340
:100CE00043EA0121116001680A6842F001020A60CA
:100CF00080F8414080F84050002030BD022030BDD7
:100D000070B5040004D094F84100002510B106E04D
:100D1000012070BD204684F8405000F04DF824209A
:100D200084F841002068016821F001010160D4E9E4
:100D3000001020F0706008612068816821F4004193
:100D40008160E06821680128A06806D040F4044072
:100D50008860E068022803D006E040F40040F7E72E
:100D600021684FF40060486020212068114A4368E0
:100D7000134343602068C26822F40042C26054F802
:100D8000106B0DCC104340EA0320F06054F81C3C7B
:100D9000D4E900021043186054F81C0D026842F0B8
:100DA00001020260656484F84110256384F84250B2
:100DB000002070BD0080000270B5B6B0044614215A
:100DC0002FA8FFF750FBBC216846FFF74CFB2049DA
:100DD000206888423AD10820009000246846209478
:100DE00000F062FA08B1FFF7F9FD1A48016841F016
:100DF00004010160016801F004013491016841F0CF
:100E00000101016000680426122500F00100349001
:100E1000F0012F9010482FA9CDE93054CDE932468A
:100E2000FFF7F0FDB0012F900C482FA9CDE9305409
:100E3000CDE93246FFF7E6FD06480830016841F487
:100E400000010160006800F40000349036B070BD0D
:100E5000005C0040E04402580008025800000258BC
:100E600002488168027811448160704704000024C0
:100E7000032010B500F086F800F0F4FF0F4A104987
:100E800014681368C4F3032203F00F038A5CC95C7F
:100E900002F01F0201F01F01D0400A4A20FA01F1BE
:100EA0001160094908600F2000F010F808B1012016
:100EB00010BD00F02BF8002010BD000018440258AF
:100EC00036450008140000241000002470B50D4DB4
:100ED00004462878A0B14FF47A71B1FBF0F00A49CA
:100EE0000968B1FBF0F001F0D4FD48B9102C07D22D
:100EF00000222146501E00F025F800206C6070BDD5
:100F0000012070BD0400002410000024054808B52D
:100F1000016841F002010160006800F002000090E9
:100F200008BD0000F4440258002809DB410900F024
:100F30001F028900012001F1E0219040C1F8000169
:100F4000704700000E4BF0B41B680D46C3F302233C
:100F5000C3F10706042E00D90426191D072901D262
:100F6000002300E0DB1E012404FA06F19C40491E28
:100F70002940641E994014402143F0BC03F07CBA20
:100F80000CED00E0064900F0070210B54FF6FF0433
:100F90000868044B204040EA02201843086010BD56
:100FA0000CED00E00000FA05134970B50A68D24361
:100FB000520705D5096801F00701814213D118E0F5
:100FC0000A6822F0070202430A60FFF73DFE0A4D5D
:100FD0004FF47A760446083D07E000BFFFF734FE81
:100FE000001BB04201D9012070BD2868C0438004B5
:100FF000F4D4002070BD00000C48025810B500F079
:10100000EBFE05490968054AC1F30211515C01F084
:101010001F01C84010BD000020440258364500089A
:10102000494930B5484C0B1D0A68143409681D68DD
:10103000246802F00303C5F30012C1F30531C4F3C1
:10104000CC04002914FB02F200EE102AF8EE400A4C
:1010500075D03F4A9FED3D1AB7EE000A6BB1DFED48
:101060003D1A012B01D0022B64D002EE101A116838
:10107000F8EE422A81EEA22A21E0334C283C236874
:101080009B0612D5344B246801EE901A1168C4F304
:10109000C104F8EE612AE34001EE903AC1F3080181
:1010A000F8EE611A81EEA22A0BE001EE901ADFED54
:1010B0002B2A00BFF8EE611A116882EEA12AC1F353
:1010C000080101EE901A1168F8EE611A40EE811ADB
:1010D00071EE800A62EE200AC1F3462101EE101A79
:1010E000B8EE411A31EE001AC0EE811ABCEEE11AD8
:1010F00080ED001A1168C1F3064101EE101AB8EE36
:10110000411A31EE001AC0EE811ABCEEE11A80EDF0
:10111000011A1168C1F3066101EE101AB8EE411A06
:1011200031EE000A80EE801ABCEEC10A80ED020AA0
:1011300030BD04E001EE901ADFED092ABAE7002184
:10114000016041608160F3E72844025800000039E3
:10115000384402580024744A0090D0030024744C90
:101160000024F44A494930B5484C0B1D0A681C3428
:1011700009681D68246802F00303C5F30022C1F367
:101180000551C4F3CC04002914FB02F200EE102A2E
:10119000F8EE400A75D03F4A9FED3D1AB7EE000ABF
:1011A0006BB1DFED3D1A012B01D0022B64D002EEB2
:1011B000101A1168F8EE422A81EEA22A21E0334C7F
:1011C000283C23689B0612D5344B246801EE901A04
:1011D0001168C4F3C104F8EE612AE34001EE903ACD
:1011E000C1F30801F8EE611A81EEA22A0BE001EECC
:1011F000901ADFED2B2A00BFF8EE611A116882EE1B
:10120000A12AC1F3080101EE901A1168F8EE611AE3
:1012100040EE811A71EE800A62EE200AC1F3462187
:1012200001EE101AB8EE411A31EE001AC0EE811A22
:10123000BCEEE11A80ED001A1168C1F3064101EE1F
:10124000101AB8EE411A31EE001AC0EE811ABCEE47
:10125000E11A80ED011A1168C1F3066101EE101A5E
:10126000B8EE411A31EE000A80EE801ABCEEC10AD7
:1012700080ED020A30BD04E001EE901ADFED092A8C
:10128000BAE70021016041608160F3E72844025819
:1012900000000039404402580024744A0090D003F2
:1012A0000024744C0024F44A2DE9FC5F044650F8F5
:1012B000241B002500902E460801FE4FDFF8F8831E
:1012C0001DD5606E50B1B0F5801F0CD0B0F5001F79
:1012D0000ED0B0F5401F1DD001250FE0386840F456
:1012E0000030386016E00221201D02F08BFA03E086
:1012F0000098022102F016FB05000BD02E46208834
:10130000C00523D5606D05281ED2DFE800F00C1162
:10131000161B1B00626ED8F8001021F44011114317
:10132000C8F80010EBE7386840F40030386009E096
:101330000021201D02F066FA03E00098002102F06F
:10134000F1FA05466DB100E001252E4620888005A2
:1013500028D5A06D80281ED00CDC90B140280ED17D
:1013600014E0626DD8F8001021F007011143C8F8AD
:101370000010EBE7C02813D0B0F5807F10D0012516
:101380000FE0386840F40030386009E00021201D8B
:1013900002F038FA03E00098002102F0C3FA054693
:1013A00095B12E462088DFF81093400509F1080911
:1013B0002CD5D4F8A400B0F5800F20D00DDCA0B15E
:1013C000B0F5001F0FD115E0A26DD8F8001021F480
:1013D000E0711143C8F80010E4E7B0F5C00F13D076
:1013E000B0F5000F10D001250FE0386840F4003050
:1013F000386009E00021201D02F004FA03E00098A3
:10140000002102F08FFA054675B12E4620880005AE
:101410002DD5D4F8A800B0F1007F21D00EDCA8B102
:10142000B0F1807F10D116E0D4F8A420D9F80010D4
:1014300021F460011143C9F80010E7E7B0F1407FE3
:1014400013D0B0F1806F10D001250FE0386840F460
:101450000030386009E00021201D02F0D3F903E0DC
:101460000098002102F05EFA05466DB12E46206814
:1014700080011FD5A06CD8B110280FD0202812D021
:10148000302815D0012514E0D4F8A820D9F8001090
:1014900021F0E0611143C9F80010E8E7386840F432
:1014A0000030386004E00221201D02F0ABF905464F
:1014B0006DB12E462088C0042BD5E06DB0F5005FDD
:1014C00020D00DDCA0B1B0F5805F0FD115E07A48D7
:1014D000A26C001F016821F0300111430160E9E7AF
:1014E000B0F5405F13D0B0F5804F10D001250FE06C
:1014F000386840F40030386009E00021201D02F017
:1015000081F903E00098002102F00CFA054685B14C
:101510002E462088800429D5206EB0F5403F23D088
:1015200010DC08B3B0F5803F14D0B0F5003F0FD108
:1015300015E0E26DD8F8001021F4E0411143C8F83D
:101540000010E6E7B0F5802F0ED0B0F5A02F0BD03D
:1015500001250AE00121201D02F054F903E0009862
:10156000012102F0DFF905468DB12E4620884004A6
:101570002AD5D4F8AC00B0F1405F23D010DC08B31A
:10158000B0F1805F14D0B0F1005F0FD115E0226E92
:10159000D8F8001021F4E0211143C8F80010E5E765
:1015A000B0F1804F0ED0B0F1A04F0BD001250AE072
:1015B0000121201D02F026F903E00098012102F02C
:1015C000B1F905466DB12E46208800041FD5E06EA6
:1015D000D8B1B0F1805F0ED0B0F1005F10D001251E
:1015E00014E0D4F8AC20D9F8001021F0E041114308
:1015F000C9F80010E8E7386840F40030386004E0CB
:101600000121201D02F0FEF805466DB12E4620682E
:10161000C0011ED5606CD0B101280ED0022811D0B7
:10162000032814D0012513E0E26ED8F8001021F051
:1016300040511143C8F80010E9E7386840F4003021
:10164000386004E00221201D02F0DCF8054685B177
:101650002E462068DFF85CB04002ABF11C0B57D57A
:101660001648016841F480710160FFF7EDFA824687
:101670000EE01148626C001F016821F00301114364
:101680000160E6E7FFF7E0FAA0EB0A0064283DD826
:101690000A480068C005F5D57DBBDFF81CA0B4F88A
:1016A000B0200AF1200ADAF8001002F4407001F4C8
:1016B000407105E02C44025850440258004802583A
:1016C000814211D0DAF80010DAF8002021F44071DC
:1016D00042F48032CAF80020DAF8002022F4803286
:1016E000CAF80020CAF80010D4F8B000B0F5807F26
:1016F00021D1FFF7A9FA019019E008E0FFF7A4FA59
:101700000199411A41F28830814210D903252E46B1
:101710002078DFF844A4C0073DD0A06F182838D047
:1017200026DC80B3082829D0102825D12CE0DAF84F
:1017300000008007E2D5D4F8B010C1F301200328DF
:1017400058460DD0016821F47C510160B4F8B020F6
:10175000DAF80010C2F30B021143CAF80010D7E701
:10176000FE4A036802EA111223F47C511143ECE7AC
:1017700020280ED028280CD001250BE00121201DA7
:1017800002F040F804E004E00098012102F0CAF8F9
:1017900005465DB12E46207880071ED5606F06286D
:1017A00019D2DFE800F0160C11161616A26FDAF83F
:1017B000001021F038011143CAF80010EBE70121B5
:1017C000201D02F01FF803E00098012102F0AAF8A2
:1017D000054675B100E001252E46207840071FD54B
:1017E000D4F89000062819D2DFE800F0160C111684
:1017F0001616626FDAF8001021F007011143CAF8DB
:101800000010EAE70121201D01F0FCFF03E0009831
:10181000012102F087F805469DB100E001252E4622
:10182000207880062BD5D4F88C00B0F1405F24D00E
:1018300011DC10B3B0F1805F15D0B0F1005F10D1B2
:1018400016E0D4F89020D9F8001021F007011143D8
:10185000C9F80010E4E7B0F1804F0ED0B0F1A04F0E
:101860000BD001250AE00021201D01F0CBFF03E091
:101870000098022102F056F805468DB12E462078D8
:1018800040062BD5D4F89800B0F5406F24D011DC79
:1018900010B3B0F5806F15D0B0F5006F10D116E021
:1018A000D4F88C20DAF8001021F0E0411143CAF896
:1018B0000010E4E7B0F5805F0ED0B0F5A05F0BD06C
:1018C00001250AE00021201D01F09CFF03E00098A3
:1018D000022102F027F805468DB12E462078000639
:1018E0002BD5D4F89C00B0F5C04F24D011DC10B338
:1018F000B0F5005F15D0B0F5804F10D116E0D4F8E8
:101900009820D9F8001021F4E0511143C9F80010D3
:10191000E4E7B0F5004F0ED0B0F5204F0BD0012515
:101920000AE00021201D01F06DFF03E00098022174
:1019300001F0F8FF05464DB12E46207800071ED570
:10194000D4F88000B0F5805F0AD00FE0D4F89C2076
:10195000D9F8001021F460411143C9F80010ECE7F8
:101960000098022101F0DEFF00B10126D4F88020AA
:10197000DAF8001021F440511143CAF80010207821
:10198000C00613D5D4F89400B0F5807F05D1009837
:10199000022101F0C7FF00B10126D4F89420D9F844
:1019A000001021F440711143C9F8001020680003B1
:1019B00016D5D4F8A00038B1B0F5803F09D0B0F505
:1019C000003F0BD001250AE00021201D01F01AFF85
:1019D00003E00098022101F0A5FF054685B12E46DF
:1019E0002068400322D5D4F88400B0F5801F11D0C0
:1019F000B0F5001F13D0B0F5401F15D0012514E03D
:101A0000D4F8A020D9F8001021F440311143C9F8CE
:101A10000010E5E7386840F40030386004E00098D2
:101A2000012101F07FFF054655B12E462068C00315
:101A30001CD5E06C70B1B0F5803F10D0012514E0EA
:101A4000D4F88420DAF8001021F440111143CAF8C8
:101A50000010EBE7386840F40030386004E0022101
:101A6000201D01F0CFFE0546CDB12E462068800036
:101A700005D50098022101F055FF00B1012620682C
:101A800080031BD5E06FB8B1B0F5807F10D0B0F502
:101A9000007F11D0B0F5407F0ED001250DE02E481B
:101AA000E26C0838016821F4803111430160DDE700
:101AB000386840F400303860F5B32E462068C00224
:101AC00007D5226FD8F8001021F000411143C8F863
:101AD00000102068C00008D5D4F8B420DBF800104E
:101AE00021F480411143CBF800102068800207D513
:101AF000A26ED8F8001021F080711143C8F80010D0
:101B0000206840000CD5DBF8001021F40041CBF830
:101B10000010DBF80010D4F8B8201143CBF8001007
:101B20002068002807DA0C48226D0838016821F087
:101B300040511143016000E014E02068000208D524
:101B4000D4F88820DAF8001021F440011143CAF8D3
:101B5000001086B1012003E054440258CFFFFF007B
:101B6000BDE8FC9FE26FDAF8001021F440711143E8
:101B7000CAF80010A2E70020EDE700002DE9F05FB1
:101B800004000F467ED0DFF83882D8F8000000F05D
:101B90000F00B8420CD2D8F8001021F00F013943E1
:101BA000C8F80010D8F8000000F00F00B84269D162
:101BB0002078844D40070AD52069296801F070011A
:101BC000884204D9296821F07001014329602078F6
:101BD0007C4E361D00070AD56069316801F070013E
:101BE000884204D9316821F07001014331602078C6
:101BF000C0060AD5A069316801F4E061884204D9C1
:101C0000316821F4E061014331602078DFF8B4B13C
:101C100080060BF1080B0CD5E1695846DBF8002073
:101C200002F07002914204D9026822F070020A4365
:101C30000260207880070AD5E068296801F00F016A
:101C4000884204D9296821F00F01014329602078D6
:101C5000C0073ED05B49A2682868183920F470603C
:101C6000104328606068022818D0032819D009683A
:101C7000012819D0490700294ADADFF848A1AAF15A
:101C8000080A00E044E0DAF8002022F007020243EC
:101C9000CAF80020FEF7D8FF814612E009688903E0
:101CA000E9E709688901E6E7C905E4E7FEF7CCFF43
:101CB000A0EB090141F28830814202D90320BDE83E
:101CC000F09F6168DAF8000000F03800B0EBC10F57
:101CD000ECD1207880070AD5E068296801F00F016F
:101CE000884204D2296821F00F0101432960D8F805
:101CF0000010404601F00F01B9420BD9016821F0F4
:101D00000F0139430160006800F00F00B84201D0B4
:101D10000120D4E7207840070AD52069296801F01E
:101D20007001884204D2296821F0700101432960C2
:101D3000207800070AD56069316801F07001884297
:101D400004D2316821F07001014331602078C0066F
:101D50000AD5A069316801F4E061884204D2316893
:101D600021F4E06101433160207880060CD5E169FF
:101D70005846DBF8002002F07002914204D202685B
:101D800022F070020A43026000F06CF80E492A68E3
:101D90002B68C2F3032203F00F038A5CC95C02F0D4
:101DA0001F0201F01F01D040084A20FA01F1116022
:101DB0000749086007480068BDE8F05FFFF786B88C
:101DC0000020005218440258364500081400002430
:101DD000100000240800002430B500F043F80B4A3E
:101DE0000B490C4B15681468C5F3032204F00F046B
:101DF0008A5C095D02F01F0201F01F01D040064A13
:101E000020FA01F119601060084630BD18440258EC
:101E100036450008140000241000002400B5FFF728
:101E2000DBFF05490968054AC1F30211515C01F065
:101E30001F01C84000BD00001C4402583645000880
:101E400000B5FFF7C9FF05490968054AC1F302213A
:101E5000515C01F01F01C84000BD00001C44025845
:101E600036450008454970B545480968434B103B65
:101E700011F0380208D00111082A03D0102A0BD023
:101E8000182A0BD0084670BD19688906FBD5196859
:101E9000C1F3C101C84070BD3A4870BD3749374DE4
:101EA00018310C1D24350A68096826682D6802F06F
:101EB000030406F00102C1F30511C5F3CC0515FBBF
:101EC00002F200EE102AB8EE400AE9B32F4ADFED25
:101ED0002E0AB7EE001A6CB1DFED2D1A012C01D0DD
:101EE000022C43D002EE101A1068F8EE422A81EE5E
:101EF000A22A1EE01C68A40611D51B6801EE901AE8
:101F00001168C3F3C103F8EE612AD84001EE900ACC
:101F1000C1F30800F8EE611A81EEA22A0BE001EE8F
:101F2000901ADFED1C2A00BFF8EE611A106882EEED
:101F3000A12AC0F3080001EE900AF8EE611A40EE03
:101F4000201A31EE810A00E015E022EE000A106846
:101F5000C0F34620401C00EE900AF8EE600A80EEC6
:101F6000201ABCEEC10A10EE100A70BD01EE901AE4
:101F7000DFED092AD8E7002070BD000010440258A8
:101F80000090D00300127A0000000039304402585B
:101F90000024744A0024744C0024F44A2DE9F05FB4
:101FA00004007DD0FF4F2078FE4D1837DFF8F49302
:101FB000103DC00748D0D9F80000396800F038005B
:101FC000102815D0182803D101F0030002280FD0E3
:101FD0006068B0F5803F12D010B1B0F5A02F18D0D6
:101FE000286820F480302860286820F4802009E0E8
:101FF0002868800328D560680028D2D024E02868AB
:1020000040F480302860606888B1FEF71DFE064607
:1020100009E0286840F480202860F0E7FEF714FE0D
:10202000801B64286FD828688003F7D50CE0FEF782
:102030000BFE064605E000BFFEF706FE801B642887
:10204000F0D828688003F7D4207841F20308D54EF1
:102050000C3E800769D5D9F80000396810F03800C7
:102060000ED0182801D188070AD0E06890B32968FB
:1020700021F0190101432960FEF7E6FD824631E0B7
:102080002868400702D5E06800288AD0E1682868FF
:1020900020F0190008432860FEF7D6FD824607E0CD
:1020A000DFE000BFFEF7D0FDA0EB0A000228B9D8A0
:1020B00028684007F6D500BFFEF7C0FD40451BD895
:1020C0002069402812D0316821F47C3141EA003087
:1020D00030602AE018E000BFFEF7B6FDA0EB0A0072
:1020E00002289FD828684007F6D5E5E7306820F435
:1020F0007C3040F40030EBE7207C316821F0FE4179
:1021000041EA0060E4E70DE1286820F00100286062
:10211000FEF79AFD824605E0FEF796FDA0EB0A0069
:1021200002288DD828684007F6D42078C0065DD5EF
:10213000D9F80000DFF86CB2396800F03800ABF174
:10214000040B082810D0182803D101F0030001283F
:102150000AD0E0690028286838D040F08000286064
:10216000FEF772FD824623E02868C00523D5E069AA
:10217000802876D11FE0206A202821D0316821F004
:10218000F84141EA8060306030E000BF94F82010F0
:10219000DBF8002022F07C5242EA0161CBF800100B
:1021A00024E000BFFEF750FDA0EB0A00022898D8FB
:1021B0002868C005F6D5FEF741FD4045E6D8DAE7C8
:1021C000306820F0F84040F08040DCE720F08000EC
:1021D0002860FEF739FD064605E000BFFEF734FD36
:1021E000801B02289DD82868C005F7D420780007F6
:1021F00029D56C486169643000298046016811D096
:1022000041F001010160FEF71FFD064605E000BF39
:10221000FEF71AFD801B0228C9D8D8F800008007F5
:10222000F6D510E021F001010160FEF70DFD064634
:1022300005E000BFFEF708FD801B022872D8D8F821
:1022400000008007F6D42078800623D5A0690028F6
:10225000286810D040F480502860FEF7F5FC064650
:1022600005E02CE1FEF7F0FC801B02285AD8286814
:102270008004F7D50EE020F480502860FEF7E4FCDF
:10228000064604E0FEF7E0FC801B02284AD82868D6
:102290008004F7D4207840074FD5DFF80C81D8F8B8
:1022A000001041F48071C8F80010FEF7CDFC06461E
:1022B00005E000BFFEF7C8FC801B642832D8D8F8C0
:1022C0000000C005F6D5374EA068603601280AD058
:1022D00008B1052813D0306820F001003060306864
:1022E00020F0040002E0306840F001003060A06897
:1022F00041F2883A90B1FEF7A7FC80460AE03068C8
:1023000040F004003060EEE7FEF79EFCA0EB080111
:10231000514507D830688007F6D50EE0FEF794FCEB
:10232000804607E084E000BFFEF78EFCA0EB0801CA
:1023300051457DD830688007F6D4606AB0B3DFF8C5
:102340006480D9F8001008F12008C1F3C201032904
:102350006FD00228286820F08070286003D0FEF734
:1023600073FC044680E0FEF76FFC064605E000BF04
:10237000FEF76AFC801B022873D828688001F7D416
:10238000E26A40F2F331386854F8283F884340EA63
:10239000021018433860217B4FF4FE0C22894FF065
:1023A000FE4704E0104402580048025889E0208AA1
:1023B0004902521E267DA1F5007189B2401EC2F36A
:1023C00008021143761E0CEA004001433E4807EA2A
:1023D000066211433C4AC8F800100832016821F037
:1023E0000101016011684FF6F876236AB14341EAB2
:1023F000C30111600168A26921F00C011143016061
:102400000168E26921F0020111430160016841F4B1
:1024100080310160016841F400310160016841F4DC
:1024200080210160016841F001010160286801E03C
:1024300017E01DE040F080702860FEF705FC0446C0
:1024400005E000BFFEF700FC001B022809D8286841
:102450008001F7D535E000BFFEF7F6FB001B022830
:1024600002D90320BDE8F09F28688001F4D428E059
:1024700039680128D8F8000021D0A26A01F00303CE
:1024800093421CD1E26AC1F305118A4217D1216B34
:10249000C0F30802491E8A4211D1616BC0F3462283
:1024A000491E91420BD1A16BC0F30642491E9142D5
:1024B00005D1E16BC0F30660491E814201D00120C5
:1024C000D0E70020CEE700002C4402582DE9F04769
:1024D000040029D0504A4FF0000920684F4B504D5E
:1024E0009042C4F8289006D0984204D0A84202D066
:1024F000E1680F2918D8E1684FF0010AE76B08314D
:10250000C9080AEB57167143904205D0984203D090
:10251000A84201D0082907D8904203D0984201D0A0
:10252000A84204D1102902D90120BDE8F08794F80F
:10253000810020B9204684F8809000F073F80220D2
:1025400084F881002068016821F0010101602168A0
:10255000A0698A68B0F1806F02F4F81010D1626847
:10256000B2F5800F01D01AB10AE0A26B22B107E0E8
:10257000A26BB2F1805F03D10A6842F480520A6014
:10258000A66AE169E26B25683143E36802431143BF
:102590001943A960D4E90D02D4E90571636A25697C
:1025A0001843D4F820C00A43266810432843A56D79
:1025B0003843D4E90182D4E9123140EA0C0040EA00
:1025C00008000843104318432843F060606868B966
:1025D0002068816821F4C05141F400618160206865
:1025E000816821F4C06141F4806181602068016DDF
:1025F00021F0010101656068400206D52068626D26
:10260000C16821F000411143C160C4F8849084F88E
:1026100081A0002089E70000003001400038004020
:10262000003C00402DE9F043B5B0074614212FA827
:10263000FDF719FFBC216846FDF715FF6C4C02261B
:10264000386805276B49103C694D4FF000088842F7
:1026500015D1286840F480502860286800F4805024
:102660003490206840F00100206020682FA900F01D
:1026700001003490E02081E841015F481AE05C49A4
:102680005E4A083990421CD1086840F480400860D6
:10269000086800F480403490206840F00200206018
:1026A00020682FA900F00200349090002FAA82E841
:1026B00041015348CDE93287FEF7A4F935B0BDE8B2
:1026C000F083504A90421AD1086840F400400860F4
:1026D000086800F400403490206840F00400206056
:1026E00020682FAA062100F0040034904FF4E05037
:1026F00082E84101CDE9328143482FA9DCE7434A12
:102700004FF4E0495114904221D16846CDF86080E1
:102710000091FEF7C9FD08B1FEF760F9286840F4A2
:1027200000502860286800F400503490206840F081
:102730001000206020682FA9CDF8BC9000F0100098
:1027400034903348CDE93068CDE93287B4E7314A77
:10275000904222D16846CDF860800091FEF7A4FD3A
:1027600008B1FEF73BF9286840F48010286028681B
:1027700000F480103490206840F020002060206831
:102780004FF460712F912FA900F02000349022485F
:10279000CDE93068CDE932878EE7204988428DD176
:1027A0004FF48040CDF8AC8000906846FEF77CFD89
:1027B00008B1FEF713F90E48001D016841F0200131
:1027C0000160006800F020003490206840F0400074
:1027D000206020682FA9CDE9306800F04000CDF8D6
:1027E000BC90CDF8C880CDE933700D4864E7000097
:1027F000F044025800300140000002580038004008
:1028000000040258003C0040000802580034014017
:1028100000100258005001400014025800140058E3
:10282000001802582DE9FF4F83B090F8801004463D
:10283000006801294FF00001109F1D46019100F131
:10284000200100F1300093460291009014D04FF027
:10285000010A84F880A0FEF7F7F9804694F8810019
:102860006368002101282E464FF480020CD0934269
:1028700008D1A36833B903E0022007B0BDE8F08FA8
:10288000042801D0022037E0049898B3BBF1000F70
:1028900031D07DB394F88100042802D0052084F85B
:1028A000810089460846C4F88410C4F864B0A4F8CE
:1028B0006A50A4F868500499E165A4F86250A4F83D
:1028C000605020676067206841686FF30F012943FB
:1028D00041602068016841F0010101606068904238
:1028E00004D12068016841F400710160E0680F289C
:1028F00036D839E0FFE7012084F88010BDE7206872
:10290000416989070DD565B1E16D09680162E06D26
:10291000001DE065B4F86200401EA4F86200B4F83F
:10292000625048F208022068416911420DD066B138
:10293000006B616E0860606E001D6066B4F86A002E
:10294000401EA4F86A00B4F86A60FEF77DF9A0EBB7
:102950000800B84202D3781C02D089E0002F34D09E
:1029600055EA0600CBD169E0072830D863E020683B
:10297000406980070ED56DB1E06D01880298018035
:10298000E06D801CE065B4F86200401EA4F86200AF
:10299000B4F8625020684069C0070ED06EB100984C
:1029A0000088616E0880606E801C6066B4F86A0002
:1029B000401EA4F86A00B4F86A60FEF745F9A0EB7F
:1029C0000800B84202D3781C01D051E08FB355EA19
:1029D0000600CCD132E02068416989070ED56DB17F
:1029E000E16D097880F82010E06D401CE065B4F8D6
:1029F0006200401EA4F86200B4F862502068416989
:102A0000C9070ED06EB190F83000616E0870606E2C
:102A1000401C6066B4F86A00401EA4F86A00B4F86E
:102A20006A60FEF711F9A0EB0800B84202D3781CE7
:102A300001D01DE0E7B155EA0600CCD100224346A3
:102A400008212046009701F069F828B1D4F88400E5
:102A500040F02000C4F88400204600F0F3FF84F822
:102A600081A0D4F8841084F8809081B1012004E71B
:102A7000204600F0E7FFD4F8842084F8809042F4E8
:102A80008071C4F8841084F881A00320F5E60198D1
:102A9000F3E6401EB0F1807F10B501D3012010BDD8
:102AA0004FF0E02460610F21601701F0E5FC002089
:102AB000A0610721216110BD704770477047000079
:102AC000F0B590F83C20012A3BD01F4E012480F83D
:102AD0003C40022280F83D2002681C4D5368B242FF
:102AE000D2F808C001D0AA4203D14F6823F4700382
:102AF0003B430F6823F070031F4357600268B242E4
:102B000013D0B2F1804F10D0114B9A420DD0114B1F
:102B10009A420AD0104B9A4207D0AA4205D00F4BD6
:102B20009A4202D00E4B9A4204D189682CF080035D
:102B300019439160002180F83D4080F83C10084620
:102B4000F0BD0220F0BD0000000001400004014083
:102B50000004004000080040000C00400018004045
:102B60000040014010B5040003D094F83D0010B1BE
:102B700007E0012010BD002084F83C00204600F052
:102B800023F8022084F83D002068211D01F0E8F8B8
:102B9000012084F8480084F83E0084F83F0084F85F
:102BA000400084F8410084F8420084F8430084F82F
:102BB000440084F8450084F8460084F8470084F80F
:102BC0003D00002010BD000008B501681D4881428D
:102BD0000FD11D48016841F0010101600068002229
:102BE000114600F0010000901920FEF7ABF9192002
:102BF00014E01648B1F1804F14D0154A914220D10B
:102C0000016841F00201016000680022114600F0F5
:102C1000020000901D20FEF795F91D20BDE8084038
:102C2000FEF782B9016841F00101016000680022ED
:102C3000114600F0010000901C20FEF783F91C20D3
:102C4000ECE708BD00000140F0440258E844025897
:102C50000004004090F83D10012901D00120704788
:102C6000174A022180F83D100168CB6843F0010348
:102C7000CB600068904214D0B0F1804F11D0114960
:102C800088420ED0104988420BD01049884208D0A3
:102C90000F49884205D00F49884202D00E49884228
:102CA00007D181680D4A1140062906D0B1F5803F51
:102CB00003D0016841F0010101600020704700006D
:102CC000000001400004004000080040000C0040EB
:102CD00000040140001800400040014007000100CE
:102CE00070B5044690F83C000025012814D03A4BFA
:102CF000012684F83C60022084F83D002268906838
:102D0000184020F47F409060086870282FD010DCB5
:102D100010F00F0F03D022E04FF0020070BD4FEA19
:102D20002012072A1BD2DFE802F0535353534B39CA
:102D30004100B0F1101F4BD009DCB0F5805F0FD01F
:102D4000B0F5005F1ED0B0F5801F08D140E0A0F5BF
:102D5000801120393CD010293AD0202938D00125C3
:102D600084F83D60002084F83C00284670BD4A6825
:102D70002068D1E9021301F055F82068816841F01C
:102D8000770109E04A682068D1E9021301F04AF8A6
:102D90002068816841F480418160E1E7CA68496840
:102DA000206801F053F82068502106E0CA6849689D
:102DB000206801F05CF82068602101F03DF8CFE761
:102DC000CA684968206801F041F820684021F4E7AA
:102DD000226801461046F0E788FFCEFF704770B5C5
:102DE0000446006800250169C943890715D4C168F4
:102DF000C943890711D4EA1E0261012121772068A5
:102E000080698007204602D0FFF7E8FF04E000F069
:102E1000A7F8204600F0A5F8257720680169C94386
:102E2000490717D4C168C943490713D402216FF079
:102E30000402026121772068806910F4407F2046F7
:102E400002D0FFF7CBFF04E000F08AF8204600F044
:102E500088F8257720680169C943090716D4C16835
:102E6000C943090712D404216FF0080202612177D7
:102E70002068C0698007204602D0FFF7AFFF04E05A
:102E800000F06EF8204600F06CF8257720680169A4
:102E9000C943C90617D4C168C943C90613D4082158
:102EA0006FF01002026121772068C06910F4407F42
:102EB000204602D0FFF792FF04E000F051F82046D0
:102EC00000F04FF8257720680169C943C90708D188
:102ED000C168C943C90704D1891E0161204600F0B9
:102EE00041F820680169C943090609D4C168C9438A
:102EF000090605D46FF0800101612046FFF7DDFD72
:102F000020680169C943C90509D4C168C9430906D4
:102F100005D46FF4807101612046FFF7CDFD206874
:102F20000169C943490609D4C168C943490605D4A2
:102F30006FF040010161204600F015F8206801693A
:102F4000C94389060BD4C168C943890607D46FF009
:102F5000200101612046BDE87040FFF7AFBD70BDA4
:102F6000704770477047704730B590F8801001295E
:102F700018D0012280F880202421C0F8841000227B
:102F8000202450F8641B0B680D6823F0005325F0D3
:102F900001050D60026050F8641C0B60046202774A
:102FA000104630BD022030BD70B5044690F8800058
:102FB00001281DD0012284F880202420C4F8840038
:102FC00020680568026822F00102026020688268B9
:102FD00022F060620A438260204600F05BFF2268B4
:102FE000202100201560C4F8841084F8800070BD92
:102FF000022070BD70B5044690F8800001281DD0F5
:10300000012284F880202420C4F884002068056808
:10301000026822F0010202602068826822F06042A9
:103020000A438260204600F035FF226820210020FC
:103030001560C4F8841084F8800070BD022070BD53
:1030400010B5040003D0D4F8840010B107E00120CB
:1030500010BD002084F88000204600F027F82420CE
:10306000C4F884002068016821F001010160204655
:1030700000F0C6FF0128EBD0A06A10B1204600F096
:103080002BFF2068416821F49041416020688168ED
:1030900021F02A0181602068016841F0010101608E
:1030A0002046BDE8104000F07BBF00002DE9F04154
:1030B000B6B0044614212FA8FDF7D5F9BC21684607
:1030C000FDF7D1F92A4E0227206800242949083E3D
:1030D000274D4FF00708884220D1684600971D947D
:1030E000FEF7E2F808B1FDF779FC286840F40030FB
:1030F0002860286800F400303490306840F0080000
:10310000306030686021CDE9307400F008002F9104
:1031100032942FA9CDE93380174823E0174988421C
:1031200022D1684600971D94FEF7BEF808B1FDF75E
:1031300055FC286840F480202860286800F480202E
:103140003490306840F00200306030684FF44061E5
:10315000CDE9307400F002002F9132942FA9CDE90F
:1031600033800748FDF74EFC36B0BDE8F081000023
:10317000E844025800440040000C02580048004057
:1031800000040258FEE700002DE9F04F87B014213B
:103190006846FDF768F95A48016841F0100101607E
:1031A000016801F010010591016841F02001016002
:1031B000016801F020010591016841F08001016082
:1031C000016801F080010591016841F00101016091
:1031D000016801F001010591016841F002010160FF
:1031E000016801F002010591016841F008010160E8
:1031F000016801F008010591016841F0400101609A
:10320000016801F040010591016841F0040101608D
:1032100000680022DFF8ECA0032100F00400059014
:103220005046FDF705FDDFF8E0B040F60F460022FE
:1032300031465846FDF7FCFC4FF4F0673348002256
:103240003946FDF7F5FC40F68F78314800224146BB
:10325000FDF7EEFC40F6F8092E4800224946FDF73E
:10326000E7FC2D4800224021FDF7E2FC00246946DE
:1032700008200294CDE900042448FDF7C3FB032095
:10328000009001256946CDE9015450460394FDF7AD
:10329000B9FB00966946CDE9015458460394FDF701
:1032A000B1FB00976946CDE9015418480394FDF736
:1032B000A9FBCDF800806946CDE901541448039478
:1032C000FDF7A0FBCDF800906946CDE90154114807
:1032D0000394FDF797FB40200090CDE901540E4880
:1032E00069460394FDF78EFB80206946CDE9000412
:1032F00009480294FDF786FB07B0BDE8F08F000097
:10330000E04402580014025800000258001002580D
:10331000000C0258001802580008025812480021F8
:1033200010B5104C0123114A0460C0E90121C0E925
:10333000033141618161C1610162FDF7E1FC08B1C6
:1033400072B6FEE708480021FDF784FC08B172B6AA
:10335000FEE705480021FDF7A9FC002801D072B660
:10336000FEE710BD005C004068010024AF747000EF
:103370002DE9F041164807220021DFF850C04FF434
:1033800080074FF0A043C0E90212FE0006610A2246
:10339000C0E9073141627510C0E90A124163AC000F
:1033A0008163C163016441648164C16401654165F5
:1033B0008165C0E90554C0E900C7FFF787F8002818
:1033C00001D072B6FEE7BDE8F08100000030014098
:1033D000B40100242DE9F041154807264FF4800779
:1033E000DFF848C00021FD0005614FF04052C0E900
:1033F0000216C0E9072141626C108162C162A3001C
:1034000041638163C163016441648164C164016596
:1034100041658165C0E90543C0E900C7FFF756F87B
:10342000002801D072B6FEE7BDE8F0810038004008
:103430003C0200242DE9F041154807264FF480078F
:10344000DFF848C00021FD0005614FF04052C0E99F
:103450000216C0E9072141626C108162C162A300BB
:1034600041638163C163016441648164C164016536
:1034700041658165C0E90543C0E900C7FFF726F84B
:10348000002801D072B6FEE7BDE8F081003C0040A4
:10349000C40200242DE9F041154807264FF48007A7
:1034A000DFF848C00021FD0005614FF04052C0E93F
:1034B0000216C0E9072141626C108162C162A3005B
:1034C00041638163C163016441648164C1640165D6
:1034D00041658165C0E90543C0E900C7FEF7F6FF15
:1034E000002801D072B6FEE7BDE8F081003401404B
:1034F0004C0300242DE9F041154807264FF48007BE
:10350000DFF848C00021FD0005614FF04052C0E9DE
:103510000216C0E9072141626C108162C162A300FA
:1035200041638163C163016441648164C164016575
:1035300041658165C0E90543C0E900C7FEF7C6FFE4
:10354000002801D072B6FEE7BDE8F08100500140CE
:10355000D403002470B5144807244FF48005114E9D
:1035600000212B01C0E9021401614FF04052C0E973
:103570000513C0E9072141628162C1624163816331
:10358000C163016441648164C16401654165816511
:10359000C0E90065FEF79AFF002801D072B6FEE789
:1035A00070BD0000001400585C04002410B588B001
:1035B00019480024174940F2DF1200944FF47A733F
:1035C00001940294039404940594069480E81600F0
:1035D000C0E9033444618461FFF7C4FA08B172B6EC
:1035E000FEE74FF4805000900B486946FFF778FBE8
:1035F00008B172B6FEE7084804A90494059406943D
:10360000FFF75EFA08B172B6FEE70348FFF722FB48
:1036100008B010BD00000140E404002410B588B0DB
:103620001848002440F2DF124FF0804100944FF41C
:103630007A7301940294039404940594069480E8A8
:103640001600C0E903348461FFF78CFA08B172B642
:10365000FEE74FF4805000900A486946FFF740FBB0
:1036600008B172B6FEE7074804A904940694FFF770
:1036700027FA08B172B6FEE70248FFF7EBFA08B086
:1036800010BD00003005002410B588B01848002493
:10369000164940F2DF1200944FF47A7301940294B9
:1036A000039404940594069480E81600C0E903345A
:1036B0008461FFF757FA08B172B6FEE74FF4805005
:1036C00000900B486946FFF70BFB08B172B6FEE7A6
:1036D000074804A904940694FFF7F2F908B172B6FA
:1036E000FEE70348FFF7B6FA08B010BD000400403B
:1036F0007C0500241748002110B5154C0C224FF40E
:10370000E1330460C0E90131C160C0E904128161A4
:10371000C161016241628162FFF792FC08B172B639
:10372000FEE70C480021FFF765FC08B172B6FEE722
:1037300008480021FFF738FC08B172B6FEE70548DB
:10374000FFF712FC002801D072B6FEE710BD0000A2
:1037500000440040C80500241748002110B5154C4E
:103760000C224FF4E1330460C0E90131C160C0E9CB
:1037700004128161C161016241628162FFF760FCF4
:1037800008B172B6FEE70C480021FFF733FC08B120
:1037900072B6FEE708480021FFF706FC08B172B6D2
:1037A000FEE70548FFF7E0FB002801D072B6FEE710
:1037B00010BD00000048004058060024FEE7FEE768
:1037C000704770B5B0B0BC216846FCF74CFE0DF1F7
:1037D000040C022032220A234FF4805100918CE81D
:1037E0000D0005AA1791802404902025002682E868
:1037F00071006846FDF758FD002801D072B6FEE75B
:1038000030B070BD2DE9F047454D044689464FF074
:10381000000A2868C04380070AD0414E283E30681D
:1038200020F080603060FDF70FFA0746B04608E0F0
:103830000120BDE8F08700BFFDF706FAC01B022893
:1038400067D8D8F800000001F6D4206829684FF442
:10385000FE0721F47C313E0241EA00302860207AE4
:10386000A389B4F804C040022D4D2D495B1E227C73
:10387000ACF1010C1035091DA0F5007080B2521E8C
:10388000CCF3080C07EA034340EA0C00184306EAAD
:103890000262104328600868626920F0C00010438B
:1038A00008600A68A06922F0200202430A60281D0D
:1038B0000A6822F010020A6002684FF6F873E469A1
:1038C0009A4342EAC40202600868B9F1000F40F06E
:1038D00010020A6011D00868B9F1010F11D040F44C
:1038E00000100860D8F80000444640F08060C8F836
:1038F0000000FDF7A9F905460DE0086840F4002036
:10390000EFE740F48010ECE7FDF79EF9401B02283A
:1039100001D903208DE720680001F5D5504688E7DE
:10392000284402582DE9F047454D044689464FF09A
:10393000000A2868C04380070AD0414E283E3068FC
:1039400020F080503060FDF77FF90746B04608E070
:103950000120BDE8F08700BFFDF776F9C01B022803
:1039600067D8D8F800008000F6D4208829684FF482
:10397000FE0721F07C713E0241EA00502860207A67
:10398000A389B4F804C040022D4D2D495B1E227C52
:10399000ACF1010C1835091DA0F5007080B2521E63
:1039A000CCF3080C07EA034340EA0C00184306EA8C
:1039B0000262104328600868626920F44060104386
:1039C00008600A68A06922F4007202430A60281D98
:1039D0000A6822F480720A6002684FF6F873E4699C
:1039E0009A4342EAC40202600868B9F1000F40F449
:1039F00080720A6011D00868B9F1010F11D040F04F
:103A000080700860D8F80000444640F08050C8F844
:103A10000000FDF719F905460DE0086840F4800044
:103A2000EFE740F40000ECE7FDF70EF9401B022839
:103A300001D903208DE720688000F5D5504688E73E
:103A40002844025810B5026840F26F3351699469F6
:103A500044F0080494610268946944F0100494618D
:103A60000268146824F001041460026814699C431D
:103A700014610268936823F44043936090F88120B6
:103A8000042A0CD08A060AD5D0F8842042F080029D
:103A9000C0F884200268936943F02003936190F892
:103AA0008120032A0CD04A060AD5D0F8842042F09F
:103AB0000402C0F884200268936943F040039361D4
:103AC0008A050AD5D0F8842042F00102C0F884208B
:103AD0000268936943F400739361C9050AD5D0F86D
:103AE000841041F00801C0F8841001688A6942F42A
:103AF00080728A610021A0F86210A0F86A1010BDDF
:103B000003B583B041F28831012301AA009104A9D1
:103B1000FEF788FE9DF8040005B000BD2DE9F041D8
:103B2000984616460D460746069C09E0FDF78CF8B8
:103B3000A0EB0800A04202D3601C01D00BE054B1FE
:103B40003868406935EA000007D00020B042EDD067
:103B50000020BDE8F0810320FBE70120F6E7704775
:103B6000FDF77EB970B59CB04C216846FCF77BFC34
:103B7000202113A8FCF777FC0220FDF715FA314944
:103B8000002431480A6822F001020A600A680268CB
:103B900042F440420260026802F440421B92026812
:103BA0009204FCD5294A136843F00203136012689B
:103BB00002F002021B92026842F440420260026874
:103BC0000A6842F001020A60096801F001011B91D4
:103BD00001688904FCD51D49CC3902200A680126F8
:103BE000C303F02522F00302921C0A6009900FAA79
:103BF0000A900821CDE90B050D900E9082E8130084
:103C0000CDE9006368461294FEF7C8F908B172B6B0
:103C1000FEE750250DF15C0C4020092316932E0180
:103C20008CE8610013AD1A903F21032285E816004D
:103C3000012113A8FDF7A2FF002801D072B6FEE70C
:103C40001CB070BD2C04005818480258F4440258A7
:103C50002C48F0B52C4A016841F4700101601068ED
:103C600000F00F00072804D2106820F00F00C01DDC
:103C7000106026490020254C10340B68244D43F079
:103C800001030B6020600B682B400B60136803F08E
:103C90000F03072B04D9136823F00F03DB1D1360F8
:103CA0001A4C1C4A18341C4B261D371D2060174C1B
:103CB0001A4D28343060261D3860371D23603B1DA7
:103CC00035601C1D3A60251D2E1D1860331D2260B5
:103CD0002860326018600A680C4B114C22F4802274
:103CE00060330A60186020686FF30F00B0F1005F66
:103CF00003D20C490120C1F8080143F2D2000A495D
:103D00000860F0BD88ED00E0002000520044025839
:103D10007FEDF6EA80020101000202020000FF01CD
:103D20000010005C00800051004000520148FFF785
:103D300056B80000E4040024044810B5FFF74FF81B
:103D400003480178491C017010BD000030050024B3
:103D5000000000240148FFF742B800007C05002461
:103D60002DE9F047274B4FF0804A274D02689842D3
:103D7000264E274F274C09D0504507D0A84205D0E2
:103D8000B04203D0B84201D0A04205D1D1F804C05E
:103D900022F070024CEA0202DFF87CC0DFF87C807F
:103DA0009842DFF87C900FD050450DD0A8420BD040
:103DB000B04209D0B84207D0A04205D0604503D038
:103DC000404501D0484503D1CD6822F440722A43D2
:103DD0004D6922F080022A43026098428A68C262DA
:103DE0000A68826207D0A04205D0604503D04045F2
:103DF00001D0484501D10969016301214161BDE854
:103E0000F08700000000014000040040000800406E
:103E1000000C00400004014000400140004401400B
:103E20000048014042EA032283680A4323F47F41A9
:103E30000A43826070470000034B82681A400A43BD
:103E400042F00701816070478FFFCFFF10B5036A12
:103E5000046A23F00A0324F00104046284690B431A
:103E600024F0F00141EA02118161036210BD10B536
:103E7000036A23F0100303628369046A23F4704326
:103E800024F0A00443EA0232826144EA0111016293
:103E900010BD000030B5416EB9B101680D4B03F1A2
:103EA00008048A688968C2F34262490F5D5C615CFC
:103EB0002D01B5FBF1F1A0F86A10995CA25C090133
:103EC000B1FBF2F1A0F8681030BD0121A0F86A1032
:103ED000F8E700002645000890F82810C90706D02A
:103EE0000168C36A4A6822F400321A434A6090F8B3
:103EF0002810890706D50168036B4A6822F48032CE
:103F00001A434A6090F82810490706D50168436BA8
:103F10004A6822F480221A434A6090F82810090760
:103F200006D50168836B4A6822F400421A434A604E
:103F300090F82810C90606D50168C36B8A6822F478
:103F400080521A438A6090F82810890606D50168C5
:103F5000036C8A6822F400521A438A6090F8281091
:103F6000490611D50168436C4A6822F480121A434D
:103F70004A60416CB1F5801F06D10168836C4A68C4
:103F800022F4C0021A434A6090F82810090606D5A8
:103F90000168C26C486820F40020104348607047F4
:103FA000F8B500260446C0F88C60FCF74DFE0546C7
:103FB00020686FF07E470068000708D500222B4676
:103FC0004FF400112046009700F0F0F960B9206826
:103FD000006840070AD500222B464FF48001204696
:103FE000009700F0E3F908B10320F8BD2020C4F8E1
:103FF0008400C4F88800E666002084F88060F8BD7C
:104000002DE9F04304468068D84E87B0D84B21682C
:10401000D4E90427D4F81CC010430A68002547EAF5
:104020000C073843324002430A602068E268416866
:1040300021F44051114341602268A1699A4201D0A4
:10404000206A01439768DFF82CC3CB4ECB4807EAC0
:104050000C070F4397602168676ACA6A22F00F0253
:104060003A43CA622268B2420ED1006800F03800BA
:10407000182873D047DCB8B3082879D010286FD13E
:1040800078E028287ED17BE0BD498A4209D10068CA
:1040900000F00700062875D2DFE800F0546A6C6E65
:1040A0007072B8498A4209D1006800F007000628FA
:1040B00068D2DFE800F0475D5F616365B2498A421C
:1040C00009D1006800F0070006285BD2DFE800F0A5
:1040D0003A5052545658AD498A420BD1006800F00C
:1040E000070006284ED200E010E0DFE800F02B4188
:1040F00043454749A6498A420AD1006800F0380082
:10410000182839D0B7DD2028BBD13CE001203AE0A7
:10411000A0498A4209D1006800F00700062831D280
:10412000DFE800F01026282A2C2E9B498A420BD16A
:10413000006800F00700062824D2DFE800F0031929
:104140001B1D1F2100201EE09A421BD18B48001D21
:10415000006800F00700062814D202E00CE007E037
:1041600010E0DFE800F0030507090B0D02200AE06C
:10417000042008E0082006E0102004E0202002E0EF
:10418000402000E080208549DFF814829A42854A69
:104190004FF400434FEA21174FF000064ED110288C
:1041A0001AD006DC022809D004280BD008287CD1BC
:1041B0000DE020283ED0402877D13DE0FCF71EFFDF
:1041C000014610E06846FCF72BFF01990BE003A8BD
:1041D000FCF7C8FF049906E01068800605D5106852
:1041E000C0F3C100C140002970D0606A676838F828
:1041F000102007EB4703B1FBF2F0834255D8B0EB38
:10420000073F52D8002308461946FCF7B5F8024686
:104210007808130E120243EA012110183A46714140
:104220000023FCF7A9F8604AA0F5407191423CD800
:1042300021688FE03946D8E71946D6E7D4F81CC084
:104240004FF6EF799C4546D1082819D005DC58B1C6
:1042500001280CD0042875D10DE0102815D0202895
:1042600035D040286ED134E0FDF7D8FD01E0FDF7F0
:10427000E7FD014610E06846FCF7D2FE01990BE02D
:1042800003A8FCF76FFF049906E01068800604D5C8
:104290001068C0F3C100C140C1B1636A606838F8FA
:1042A0001330B1FBF3F1490000E04BE001EB5001AA
:1042B000B1FBF0F0A0F11001494543D84FF6F0737F
:1042C0002168C0F342021840104343E043E03946FE
:1042D000E3E71946E1E7082819D005DC58B10128C1
:1042E0000CD004282ED10DE0102815D020282BD07A
:1042F000402827D12AE0FDF791FD01E0FDF7A0FD60
:10430000014610E06846FCF78BFE01990BE003A81C
:10431000FCF728FF049906E01068800604D51068B1
:10432000C0F3C100C140B1B1636A606838F81330AE
:10433000B1FBF3F101EB5001B1FBF0F0A0F1100182
:10434000494505D9012506E03946EDE71946EBE771
:10435000216880B2C8600120A4F86A00A4F868004F
:1043600028462667666707B0BDE8F083F369FFCF8C
:10437000000C0058FFF4FF11001001405444025893
:104380000044004000480040004C00400050004005
:104390000014014000780040007C00400090D003F1
:1043A0000E45000800440258FFFC0F002DE9F047BD
:1043B0009A4617460E460446089D4FF000094FF0F6
:1043C00020084CE0681C4AD0FCF73EFCA0EB0A0039
:1043D000A8422AD84DB32068016849073FD5C06973
:1043E000C04300053BD421684FF400600862216897
:1043F00051E8000F20F4D07041E80002002AF6D105
:104400002068083050E8001F21F0010140E8001248
:10441000002AF5D1C4F8848084F88090C4F888809C
:10442000C4F88C800320BDE8F087206850E8001FA6
:1044300021F4D07140E80012002AF6D1206808303B
:1044400050E8001F21F0010140E80012002AF5D1D8
:10445000C4F8848084F88090C4F88880E2E72068FB
:10446000C06936EA000004D00020B842AAD000207B
:10447000D9E70120F9E7FEE7090700284FEA1161B3
:1044800004DB00F1E02080F80014704700F00F001A
:1044900000F1E02080F8141D70470000FCF7E8FCF4
:1044A000FFF760FBFFF78DF9FEF76EFEFEF736FFB4
:1044B000FEF75EFFFEF78EFFFEF7BCFFFEF7EAFF9A
:1044C000FFF718F8FFF746F8FFF770F8FFF7A6F8C0
:1044D000FFF7DAF8FFF70EF9FFF73EF9074800217A
:1044E000FCF726F8064C002520786428FCD9034800
:1044F00000212570FCF71CF8F6E70000B401002449
:10450000000000244FF04070E1EE100A70470100F7
:1045100002000400060008000A000C001000200041
:1045200040008000000101010103070100000804B0
:10453000020408010101000000000102030401025D
:10454000030406070809000068450008000000246D
:1045500018000000D402000880450008180000245C
:10456000300D0000F0020008000000000100000013
:1045700010000000000000000090D0030090D00365
:040000050800029954
:00000001FF
